:020000040800F2
:10000000B0080020CD010008570D00085304000877
:10001000ED040008FD020008ED21000800000000CA
:100020000000000000000000000000008117000830
:100030003B03000800000000A11300089518000809
:10004000E7010008E7010008E7010008E7010008F0
:10005000E7010008E7010008E7010008E7010008E0
:10006000E7010008E7010008E7010008E7010008D0
:10007000E7010008E7010008E7010008E7010008C0
:10008000E7010008E7010008E7010008E7010008B0
:10009000E7010008E7010008E7010008E7010008A0
:1000A000E7010008E7010008E7010008E701000890
:1000B000E7010008E7010008E7010008E701000880
:1000C000E7010008E7010008E7010008E701000870
:1000D000E7010008651E00087D1F0008E701000811
:1000E000E7010008E7010008E7010008E701000850
:1000F000E7010008E7010008E7010008E701000840
:10010000E7010008E701000861190008E70100089D
:10011000E7010008E7010008E7010008E70100081F
:10012000E7010008E7010008E7010008E70100080F
:1001300000F002F800F03AF80AA090E8000C8244BF
:100140008344AAF10107DA4501D100F02FF8AFF29C
:10015000090EBAE80F0013F0010F18BFFB1A43F0A5
:1001600001031847CC3E0000EC3E0000103A24BFCB
:1001700078C878C1FAD8520724BF30C830C144BF0C
:1001800004680C607047000000230024002500264E
:10019000103A28BF78C1FBD8520728BF30C148BFEA
:1001A0000B6070471FB51FBD10B510BD00F078F88B
:1001B0001146FFF7F7FF02F0F9FC00F096F803B4E0
:1001C000FFF7F2FF03BC02F047FB0000094880473D
:1001D00009480047FEE7FEE7FEE7FEE7FEE7FEE729
:1001E000FEE7FEE7FEE7FEE704480549054A064B41
:1001F000704700009918000831010008B002002083
:10020000B0080020B0040020B0040020704710B5F2
:10021000203AC0F00B80B1E81850203AA0E81850FE
:10022000B1E81850A0E81850BFF4F5AF5FEA027CBF
:1002300024BFB1E81850A0E8185044BF18C918C02E
:10024000BDE810405FEA827C24BF51F8043B40F8CF
:10025000043B08BF7047D20728BF31F8023B48BFB4
:1002600011F8012B28BF20F8023B48BF00F8012BF2
:100270007047704770477047704710B500F008F836
:10028000006810BD10B5044600F002F8046010BD0F
:10029000004870475002002000487047500200207C
:1002A0007546FFF7F9FFAE4605006946534620F054
:1002B0000700854618B020B5FFF796FFBDE820403F
:1002C0004FF000064FF000074FF000084FF0000B12
:1002D00021F00701AC46ACE8C009ACE8C009ACE8C5
:1002E000C009ACE8C0098D46704710B50446AFF3AD
:1002F00000802046BDE81040FFF761BF00BFFEE769
:1003000030B502460B464FF6FF70002112E0555CF7
:10031000684000240AE000F0010525B14AF2010519
:1003200085EA600000E04010651CECB2082CF2DBAE
:100330004D1CE9B29942EADB30BD70472DE9F0412E
:10034000024600250026002000230024002791F803
:1003500003C00CF00F0591F803C00CF0100CBCF1B9
:10036000000F03D091F802C04CEA050591F800C0D7
:10037000BCF1000F31D0146800202BE04FF0010CCD
:100380000CFA00F3B1F800C00CEA03069E4220D13B
:1003900083004FF00F0C0CFA03F7BC4305FA03FC83
:1003A0004CEA040491F803C0BCF1280F06D14FF0C9
:1003B000010C0CFA00FCC2F814C00AE091F803C06A
:1003C000BCF1480F05D14FF0010C0CFA00FCC2F84B
:1003D00010C0401C0828D1D31460B1F800C0BCF193
:1003E000FF0F34DD546800202EE000F1080C4FF0C0
:1003F000010808FA0CF3B1F800C00CEA03069E42AB
:1004000021D183004FF00F0C0CFA03F7BC4305FA1F
:1004100003FC4CEA040491F803C0BCF1280F05D199
:1004200000F1080C08FA0CF8C2F8148091F803C027
:10043000BCF1480F07D100F1080C4FF0010808FA91
:100440000CF8C2F81080401C0828CED35460BDE8D8
:10045000F08100BFFEE70000002005494860886089
:10046000C86008610348086000208862C86270475D
:100470007C010020CDCCCC3D00200549486088603F
:10048000C86008610348086000208862C86270473D
:10049000BC010020CDCCCC3D08B50121202000F0CE
:1004A00091FF4FF47F40ADF8000010208DF803005D
:1004B00003208DF8020069460B48FFF73FFF4FF419
:1004C0008040094910310860400008604011086010
:1004D000801008600001086040000860801008601B
:1004E0008010086008BD00000014014000BFFEE756
:1004F0002DE9FF5F4C48039000200290019000908E
:100500004A480068401D494908600846006803F0F1
:10051000B3FA0446444903F0B1F90190019803F09D
:100520001FF90646424A434B02F0F0FE044602F031
:1005300011FC009040494148006803F09FF9824651
:1005400003F00EF9804602F08BF906464FF0404268
:100550003B4B02F0DBFE044602F0FCFB02900098ED
:1005600003F0FEF8064602F055FB804689460298E5
:1005700003F0F6F8044642464B4602F0C7FE8246B8
:1005800002F0E8FB2F490860002000F033FD2E4800
:1005900000F02AFD002000F021FD2C4800F018FD9D
:1005A0002848006800F0C4FD274800F0BBFD00208B
:1005B00000F0B2FD254800F0A9FD2549486800F08B
:1005C00091FC2349C8622349486800F029FD21496C
:1005D000C8621F48C06A41F28831884202DD08467D
:1005E0001B49C8621A48C06A1B49884202DA084699
:1005F0001749C8621748C06A41F28831884202DD53
:1006000008461449C8621348C06A1349884202DA8E
:1006100008461049C8620F4AD16A0D4AD06A00F0F4
:1006200060FBBDE8FF9F00000080BB445C00002031
:100630006E861BF0F92119400000A44250000020F2
:10064000DCA54C404C0000200000C04100803B4530
:100650007C010020BC01002078ECFFFF2DE9FF5F4A
:100660004C48039000200290019000904A48006896
:10067000401D494908600846006803F0FDF904463A
:10068000444903F0FBF80190019803F069F806462D
:10069000424A434B02F03AFE044602F05BFB0090F4
:1006A00040494148006803F0E9F8824603F058F8F1
:1006B000804602F0D5F806464FF040423B4B02F030
:1006C00025FE044602F046FB0290009803F048F82D
:1006D000064602F09FFA80468946029803F040F8E9
:1006E000044642464B4602F011FE824602F032FBBF
:1006F0002F4908600846006800F07CFC2D4800F097
:1007000073FC2D4800F06AFC2C4800F061FC0020CE
:1007100000F00EFD274800F005FD274800F0FCFC26
:10072000264800F0F3FC2649486800F0DBFB24492A
:10073000C8622449486800F073FC2249C862204816
:10074000C06A41F28831884202DD08461C49C8620D
:100750001B48C06A1C49884202DA08461849C86228
:100760001848C06A41F28831884202DD08461549BE
:10077000C8621448C06A1449884202DA084611491E
:10078000C862104AD16A0E4AD06A00F0AAFABDE8DF
:10079000FF9F00000080BB44600000206E861BF0BD
:1007A000F92119400000B04250000020DCA54C4067
:1007B000480000200000C041CDCCCC3D00803B452E
:1007C0007C010020BC01002078ECFFFF2DE9F04FF8
:1007D0009DB07F481B904C227E4908A8FFF717FD6B
:1007E00000200790069005900490039002907A49AB
:1007F0007A48006803F042F8044603F01DF90490BB
:1008000077480068401D764908600846006803F094
:1008100033F904466E4903F031F80390039802F06F
:100820009FFF06466F4A704B02F070FD044602F0CF
:1008300091FA02906D496E48006803F01FF88246F5
:1008400002F08EFF804602F00BF806464FF0404261
:10085000684B02F05BFD044602F07CFA05905F48AD
:10086000006802F07DFF8246634A644B02F04EFD51
:10087000064602F005F980468946059802F070FFA9
:10088000044642464B4602F041FDCDE9000102F02C
:1008900061FA07905148006802F062FF564A574BD0
:1008A000CDE9000102F032FD804602F0B3F90446C2
:1008B0000D46059802F054FF064622462B4602F0EC
:1008C00025FD824602F046FA0690029802F048FFA3
:1008D000824602F09FF906460F46079802F040FF55
:1008E000804632463B4602F011FD044602F032FAE1
:1008F0004349086008AA049852F82010029802F0B0
:100900005BFF019002F02CFF064602F083F90446DB
:100910000D46069802F024FF804622462B4602F040
:10092000F5FC824602F016FA364908603448006841
:1009300000F060FB344800F057FB344800F04EFBF9
:10094000334800F045FB2F48006800F0F1FB2E48CB
:1009500000F0E8FB2D4800F0DFFB2D4800F0D6FB4F
:100960002C49486800F0BEFA2A49C8622A494868FA
:1009700000F056FB2849C8622648C06A41F2883117
:10098000884202DD08462349C8622248C06A2349DA
:10099000884202DA08461F49C8621F48C06A41F20D
:1009A0008831884202DD08461B49C8621A48C06A7D
:1009B0001A49884202DA08461749C862164AD16ABB
:1009C000144AD06A00F08DF91DB0BDE8F08F000028
:1009D0000080BB44283E0008000020415400002055
:1009E000640000206E861BF0F92119400000B0421F
:1009F00050000020DCA54C40514CDE0033DF913F1D
:100A0000480000204C0000200000C041CDCCCC3D6F
:100A100000803B457C010020BC01002078ECFFFFFA
:100A200070B53549486802F09BFE21F0004104464C
:100A30000022324B02F02EFC52D23149486802F0BB
:100A40008FFE21F00041044600222C4B02F022FCD4
:100A500046D2002000F0CEFA2A4800F0C5FA002065
:100A600000F0BCFA284800F0B3FA002000F060FB68
:100A7000244800F057FB002000F04EFB224800F015
:100A800045FB1D49486800F02DFA1B49C8621C4906
:100A9000486800F0C5FA1A49C8621748C06A41F2AE
:100AA0008831884202DD08461349C8621248C06A8C
:100AB0001649884202DA08460F49C8621048C06ADF
:100AC00041F28831884202DD08460D49C8620C486F
:100AD000C06A0E49884208DA08460949C86204E03B
:100AE00000200549C8620649C862054AD16A024A1F
:100AF000D06A00F0F6F870BD7C010020008046400E
:100B0000BC0100200000A04100007A4578ECFFFF06
:100B10002DE9F04F87B060480690002005900490C2
:100B2000039002905D480068401D5C4908600846DB
:100B3000006802F0A1FF0446574902F09FFE0390AF
:100B4000039802F00DFE0646554A564B02F0DEFBB6
:100B5000044602F0FFF8029053495448006802F03E
:100B60008DFE824602F0FCFD804601F079FE0646CD
:100B70004FF040424E4B02F0C9FB044602F0EAF847
:100B800005904C48007810B94B48049005E049485E
:100B90000078012801D149480490029802F0E0FD54
:100BA000804602F037F804460D46059802F0D8FD5D
:100BB000064622462B4602F0A9FB824602F0CAF8FE
:100BC0003F4908600499029802F0F6FD019002F096
:100BD000C7FD064602F01EF804460D46059802F0D1
:100BE000BFFD804622462B4602F090FB824602F073
:100BF000B1F8344908603248006800F0FBF9324827
:100C000000F0F2F9314800F0E9F9314800F0E0F97C
:100C10002C48006800F08CFA2B4800F083FA2B482F
:100C200000F07AFA2A4800F071FA2A49486800F080
:100C300059F92849C8622849486800F0F1F926495D
:100C4000C8622448C06A41F28831884202DD084601
:100C50002049C8621F48C06A2049884202DA084613
:100C60001C49C8621C48C06A41F28831884202DDD2
:100C700008461949C8621848C06A1849884202DA09
:100C800008461549C862144AD16A124AD06A00F06F
:100C900028F807B0BDE8F08F0040B044680000209D
:100CA0006E861BF0F92119400000B0425000002070
:100CB000DCA54C4058000020D80FC93FE2CB96403D
:100CC000480000204C0000200000A041CDCCCC3DCD
:100CD00000803B457C010020BC01002078ECFFFF38
:100CE000704770B504460D46002C06DBA0B200F03C
:100CF0007DFAA0B200F0B0FA11E0002C0FDA261E47
:100D000001DB314600E0714288B200F05DFA261E38
:100D100001DB314600E0714288B200F0AFFA002DED
:100D200006DBA8B200F03EFAA8B200F071FA11E0BA
:100D3000002D0FDA2E1E01DB314600E0714288B231
:100D400000F01EFA2E1E01DB314600E0714288B22F
:100D500000F070FA70BD704770B5002100230F22BB
:100D6000C47804B3154C246804F4E064C4F5E0646A
:100D7000210AC1F10403CA40447804FA03F18478DB
:100D80001440214309010E4C0678A155047804F063
:100D90001F050124AC4005786D11AD0005F1E0257B
:100DA000C5F8004109E0047804F01F050124AC40B7
:100DB000044D0678761145F8264070BD0CED00E034
:100DC00000E400E080E100E002490143024A1160D2
:100DD000704700000000FA050CED00E02DE9F0433B
:100DE0008FB006460F469046994600200B900C9017
:100DF0000D900E900790089009900A90039004902F
:100E00000590069000900190029000250B960C979B
:100E1000CDF83480CDF8389000240FE00BA951F8BC
:100E2000240002F0EDFD07A941F8240007A850F8BE
:100E3000240003A941F82400601CC4B2042CEDDB9B
:100E4000002410E003A810F824000DF8140003A8F3
:100E500030F82400C0F30720012101EB44010DF814
:100E60000100601CC4B2042CECDB08216846FFF7CB
:100E700047FA05462846E91705EB11610912A5EB6B
:100E80000121C9B28DF80810E91705EB1161090AB3
:100E90008DF8091000240DE01DF80410084801F039
:100EA0008EF900BF4021064801F0BBF80128F9D1B6
:100EB000601CC4B20A2CEFDB0FB0BDE8F083000069
:100EC0000038014000200649C86108620861486195
:100ED000886108600021024A9160D160704700007B
:100EE000000200202DE9F04F89B0834635480168A3
:100EF000584602F0A1FE8246504602F031FC0446FC
:100F00003048D0E902633246204601F055FF2D4AB1
:100F1000C2E90201104600222B4BD0E902412046D3
:100F200002F0F2FA05D200212748264AC2E902104F
:100F30000DE02449D1E902410022244B204602F071
:100F4000A9F904D2002121481E4AC2E902101D4815
:100F5000C169504602F07AFE08901A48C0F81CA0F9
:100F600001468869089902F09BFD064602F0F8FBED
:100F7000CDE906011349486902F0F2FBCDE9000111
:100F80001048D0E902633246009802F0BFF9CDE97B
:100F900004010C490869514602F082FD064602F040
:100FA000DFFBCDE90201DDE9042301F005FF044682
:100FB000DDE9062301F000FF804602F011F909B0D7
:100FC000BDE8F08F0002002000408F4000408FC03D
:100FD0000149886170470000000200200149486112
:100FE00070470000000200200149086170470000BE
:100FF0000002002001490860704700000002002044
:1010000000200649C861086208614861886108607B
:101010000021024A9160D160704700002802002040
:101020002DE9F04F89B0834635480168584602F0F3
:1010300003FE8246504602F093FB04463048D0E956
:1010400002633246204601F0B7FE2D4AC2E9020192
:10105000104600222B4BD0E90241204602F054FA00
:1010600005D200212748264AC2E902100DE0244992
:10107000D1E902410022244B204602F00BF904D2B0
:10108000002121481E4AC2E902101D48C16950468C
:1010900002F0DCFD08901A48C0F81CA001468869DF
:1010A000089902F0FDFC064602F05AFBCDE9060164
:1010B0001349486902F054FBCDE900011048D0E91A
:1010C00002633246009802F021F9CDE904010C498F
:1010D0000869514602F0E4FC064602F041FBCDE906
:1010E0000201DDE9042301F067FE0446DDE9062381
:1010F00001F062FE804602F073F809B0BDE8F08F9F
:101100002802002000408F4000408FC001498861C4
:101110007047000028020020014948617047000024
:1011200028020020014908617047000028020020C1
:1011300001490860704700002802002008B501211D
:10114000042000F02FF90121082000F03BF94FF4B2
:101150007070ADF8000018208DF8030003208DF8A2
:10116000020069460148FFF7E9F808BD000C01409C
:1011700010B5FFF7E3FF00F093F8FFF78DF910BD0E
:1011800010B504464FF48040044908608010091DE2
:1011900008602146024800F0D4FD10BD1014014043
:1011A0000008004010B504464FF480400449086030
:1011B0008010091F08602146024800F0C2FD10BDE2
:1011C000141401400008004010B504464FF40040DC
:1011D000044908608010091D08602146024800F09B
:1011E000B2FD10BD101401400008004010B50446C7
:1011F0004FF40040044908608010091F0860214630
:10120000024800F0A0FD10BD141401400008004089
:1012100010B504464FF48060044908604000091F7F
:1012200008602146024800F090FD10BD14140140F2
:101230000008004010B504464FF48060044908607F
:101240004000091D08602146024800F07EFD10BDE7
:10125000101401400008004010B504464FF480709F
:10126000044908604000091F08602146024800F058
:1012700066FD10BD141401400008004010B504467E
:101280004FF48070044908604000091D0860214641
:10129000024800F054FD10BD101401400008004049
:1012A00000B587B00121042000F07CF84720ADF89C
:1012B00010000020ADF8120040F2E730ADF8140045
:1012C0000020ADF8160004A9344800F041FD70205C
:1012D000ADF800000120ADF802000220ADF80800D2
:1012E0000020ADF8060069462C4800F0CDFB7020C8
:1012F000ADF800000120ADF802000220ADF80800B2
:101300000020ADF806006946244800F013FC702068
:10131000ADF800000120ADF802000220ADF8080091
:101320000020ADF8060069461C4800F063FC702000
:10133000ADF800000120ADF802000220ADF8080071
:101340000020ADF806006946144800F0ADFC082105
:10135000124800F0E5FB0821104800F03DFC082190
:101360000E4800F097FC08210C4800F0DBFC00213F
:101370000A4800F0E4FC0021084800F0E2FC0021EB
:10138000064800F0E0FC0021044800F0DEFC0121EA
:10139000024800F053FB07B000BD00000008004009
:1013A0007047000029B1064AD2690243044BDA6152
:1013B00004E0034AD2698243014BDA6170470000BE
:1013C0000010024029B1064A92690243044B9A6117
:1013D00004E0034A92698243014B9A61704700001E
:1013E0000010024030B500210022002400232D4DC2
:1013F0006D6805F00C0121B1042905D0082923D11D
:1014000005E0294D056022E0274D05601FE0254DD0
:101410006D6805F47012234D6D6805F48034022563
:1014200005EB92421CB9214D554305600BE01D4D63
:101430006D6805F400351DB11C4D5543056002E093
:10144000194D5543056002E0174D056000BF00BF10
:10145000144D6D6805F0F0010909154D6B5C0568C8
:10146000DD4045600F4D6D6805F4E061090A104DDF
:101470006B5C4568DD4085600A4D6D6805F4605120
:10148000C90A0B4D6B5C4568DD40C560054D6D6854
:1014900005F44041890B074D6B5CC568B5FBF3F55E
:1014A000056130BD0010024000127A0000093D00C5
:1014B00014000020240000202DE9F047A348007804
:1014C00000287AD0A248A3490A6802604A684260AC
:1014D0000A890281897A817200209C4908709D489E
:1014E0000078552869D19B484078512804D052286B
:1014F00064D053287ED1C4E095498978944AD27843
:1015000041EA022108B201F09AFE80460022924B85
:1015100001F00EFD06460022904B01F0F7FE044656
:1015200001F018FC8E49086089490979884A527986
:1015300041EA022108B201F082FE80460022864B79
:1015400001F0F6FC06460022844B01F0DFFE044663
:1015500001F000FC824948607D4989797C4AD27952
:1015600041EA022108B201F06AFE804600227A4B6D
:1015700001F0DEFC06460022784B01F0C7FE04466F
:1015800001F0E8FB764988607149097A704A527A1D
:1015900041EA022108B201F052FE80460022714B5E
:1015A00001F0C6FC064600226F4B01F005FC044624
:1015B00001F0D0FB6D490860C5E0C5E06449897859
:1015C000634AD27841EA022108B201F038FE80462F
:1015D0000022614B01F0ACFC06460022644B01F096
:1015E00095FE044601F0B6FB624908605849097946
:1015F000574A00E0A6E0527941EA022108B201F020
:101600001EFE80460022544B01F092FC064600224A
:10161000574B01F07BFE044601F09CFB55494860A6
:101620004B4989794A4AD27941EA022108B201F04C
:1016300006FE06460022484B01F07AFC04460022D2
:101640004B4B01F063FE804601F084FB4949886002
:101650003F49097A3E4A527A41EA022108B201F032
:10166000EEFD804600223F4B01F062FC0646002260
:101670003D4B01F0A1FB044601F06CFB3B490860C7
:1016800061E033498978324AD27841EA022108B2CE
:1016900001F0D5FD064600222F4B01F049FC04461F
:1016A0000022354B01F032FE804601F053FB3349F6
:1016B000086027490979264A527941EA022108B28D
:1016C00001F0BDFD80460022234B01F031FC0646AF
:1016D0000022294B01F01AFE044601F03BFB27498A
:1016E00048601B4989791A4AD27941EA022108B235
:1016F00001F0A5FD06460022174B01F019FC044637
:1017000000221D4B01F002FE804601F023FB1B4925
:1017100088600F49097A0E4A527A41EA022108B2DA
:1017200001F08DFD064600220E4B01F001FC04463F
:1017300000220D4B01F040FB804601F00BFB0B49F2
:10174000086000E000BF00BFBDE8F087390000205E
:101750006E010020580100200000E04000003040F1
:101760003401002000407540002042403400002039
:1017700000409F4040010020008066404C01002056
:10178000704710B500F002F810BD00000CB5002045
:10179000019000903348006840F48030314908607F
:1017A00000BF3048006800F4003000900198401CF1
:1017B0000190009818B90198B0F5A06FF1D12948AF
:1017C000006800F4003010B10120009001E000201A
:1017D00000900098012843D12348006840F0100091
:1017E000214908600846006820F0030008600846A8
:1017F000006840F0020008601A48406819494860D3
:101800000846406848600846406840F48060486088
:101810000846406820F47C1048600846406840F460
:10182000E81048600846006840F08070086000BF1B
:101830000C48006800F000700028F9D009484068A2
:1018400020F00300074948600846406840F0020065
:10185000486000BF0348406800F00C000828F9D138
:101860000CBD00000010024000200240042808D1F6
:101870004FF0E021096941F004014FF0E0221161CD
:1018800007E04FF0E021096921F004014FF0E02268
:10189000116170477047000010B51348006840F0B0
:1018A00001001149086008464068104908400E4987
:1018B0004860084600680E4908400B490860084621
:1018C000006820F4802008600846406820F4FE008C
:1018D00048604FF41F008860FFF753FF4FF000602F
:1018E0000449086010BD0000001002400000FFF82D
:1018F000FFFFF6FE08ED00E07FB504460D4601212E
:101900000820FFF74FFDADF804500020ADF80600A9
:10191000ADF80840ADF80A008DF80C0001A90F4899
:1019200000F016FA01210D4800F082F8012211465C
:101930000A4800F0A0F832208DF8000002208DF84F
:1019400001008DF8020001208DF803006846FFF7C2
:1019500003FA0121014800F071F87FBD000C00403E
:1019600070B5002400250820294908600121294874
:1019700000F070F8012846D12748046845682748D8
:101980000168204602F062F925494860254801684F
:10199000284602F05BF924494860214A9168506862
:1019A00002F054F91E4988620846406888601E4A61
:1019B0009168506802F04AF91B49886208464068FD
:1019C00088601A480078072817D2DFE800F016046C
:1019D000070A0D101300FEF78BFD0FE0FEF73EFE29
:1019E0000CE0FEF7F3FE09E0FFF71AF806E0FFF758
:1019F0008FF803E0FFF774F900E000BF00BF01219A
:101A0000044800F018F808200149091D086070BD5D
:101A100010180140000C00404C0100203C00002048
:101A20007C01002040000020BC0100204400002078
:101A3000CA4302827047CA430282704721B10288BA
:101A400042F00102028004E002884FF6FE731A4061
:101A50000280704730B50246002000230024158A1A
:101A600005EA0103958905EA010413B10CB10120CF
:101A700000E0002030BD1AB183890B43838102E06E
:101A800083898B438381704770B500240022002333
:101A9000058C4FF6FE7635400584028C8388048BD6
:101AA0004FF68F752C40B51E2C400D882C43751EAB
:101AB0002A400D892A434D882A43144DA8420BD051
:101AC000134DA84208D0134DA84205D0124DA8428C
:101AD00002D0124DA84213D14FF6F7752A404D8916
:101AE0002A434FF6FB752A408D882A434FF6FF653F
:101AF0002B404FF6FF552B408D892B43CD892B432F
:101B000083800483CD888586028470BD002C0140CB
:101B100000340140004001400044014000480140C1
:101B20000A460021018B4FF6F773194011430183D8
:101B30007047000070B5002400220023058C4FF68A
:101B4000EF7635400584028C8388048B48F6FF7558
:101B50002C404FF6FF452C400D884FF6FF7606EAE5
:101B600005252C434FF6DF752A400D8906EA051539
:101B70002A434D8806EA05152A43154DA84202D08E
:101B8000144DA8421DD14FF67F752A404D894FF65E
:101B9000FF7606EA05152A434FF6BF752A408D8861
:101BA00006EA05152A434FF6FF352B404FF2FF7525
:101BB0002B408D8906EA85052B43CD8906EA8505EC
:101BC0002B4383800483CD880587028470BD000089
:101BD000002C0140003401400A460021018B4FF2E5
:101BE000FF7319404FF6FF7303EA02231943018381
:101BF0007047000070B5002400220023058C4FF6CA
:101C0000FF6635400584028C8388848B4FF68F7580
:101C10002C404FF6FC752C400D882C434FF6FF5599
:101C20002A400D894FF6FF7606EA05252A434D889E
:101C300006EA05252A43154DA84202D0144DA842B4
:101C40001DD14FF2FF752A404D894FF6FF7606EA07
:101C500005252A434FF6FF352A408D8806EA0525DB
:101C60002A434EF6FF752B404DF6FF752B408D89AC
:101C700006EA05152B43CD8906EA05152B4383801B
:101C80008483CD888587028470BD0000002C0140CC
:101C9000003401400A460021818B4FF6F77319404A
:101CA000114381837047000070B500220023002497
:101CB000058C4EF6FF7635400584038C8488828B34
:101CC00048F6FF752A404FF6FF452A400D884FF62B
:101CD000FF7606EA05252A434DF6FF752B400D8950
:101CE00006EA05352B434D8806EA05352B430B4D97
:101CF000A84202D00A4DA84208D14BF6FF752C40ED
:101D00008D894FF6FF7606EA85152C438480828301
:101D1000CD88A0F84050038470BD0000002C014025
:101D2000003401400A460021818B4FF2FF731940B5
:101D30004FF6FF7303EA02231943818370478186BC
:101D400070470187704781877047A0F8401070473F
:101D5000002202881D4B98420ED01D4B98420BD09A
:101D6000B0F1804F08D01B4B984205D01A4B9842D7
:101D700002D01A4B984204D14FF68F731A404B8809
:101D80001A43174B984207D0164B984204D04FF68F
:101D9000FF431A40CB881A4302808B8883850B88C7
:101DA00003850A4B98420BD0094B984208D00E4B42
:101DB000984205D00D4B984202D00D4B984201D16C
:101DC0000B7A03860123838270470000002C0140B8
:101DD000003401400004004000080040000C0040B6
:101DE0000010004000140040004001400044014049
:101DF0000048014010B500F079F800F0E4F9002443
:101E000025E0154801681548006801F0D5FC134924
:101E10000860114841681248006801F0CDFC104983
:101E20000860002C0FDD4FF080410C48006801F085
:101E300025FD0A4908604FF080410948006801F01B
:101E40001DFD07490860012000F08AFE641CB4F5FE
:101E50007A7FD6DB10BD00004C0100203C00002042
:101E60004000002010B540F225511D4800F0E6F872
:101E700010B31B4800F09EF9C4B21A48008800F461
:101E80000040C8B91748008800F4804060B10A2CAF
:101E900003D000201349088020E01248008840F455
:101EA00000401049088019E00D2C06D10D4800882B
:101EB00040F480400B49088010E00A480088C0F3D5
:101EC0000D0009490C5407480088401C054908804A
:101ED00008460088C72801DD0020088010BD0000EA
:101EE00000380140300000206C00002000B585B0B3
:101EF00001214804FFF756FA01210520FFF762FA95
:101F00000420ADF8100018208DF8130003208DF880
:101F1000120004A91748FEF711FA0820ADF81000C6
:101F200048208DF8130004A91248FEF707FA4FF471
:101F3000E13000900020ADF80400ADF80600ADF8E7
:101F40000800ADF80C000C20ADF80A0069460A48FC
:101F500000F0C4F8012240F22551074800F098F83B
:101F60000121054800F051F84021034800F044F8F1
:101F700005B000BD000801400044004010B540F22B
:101F80002551184800F05AF838B3164800F012F9F5
:101F90001549164A127888541448007820B9084622
:101FA0000078552800D010BD10480078401C0F491B
:101FB0000870084600780B280FD10D480A490A68B6
:101FC00002604A6842600A890281897A817200202F
:101FD00006490870012007490870FFF76DFA00BF35
:101FE000E1E70000004400406E01002038000020BE
:101FF000580100203900002001F40072B2F5007F82
:1020000000D100BFCA430280704721B1828942F4E7
:102010000052828104E082894DF6FF731A4082816A
:10202000704702460020B1F5007F00D100BF138841
:102030000B400BB1012000E00020704770B5024654
:10204000002400230025002040F66A16B14200D18A
:1020500000BFC1F3421501F01F03012606FA03F386
:10206000012D02D19689334006E0022D02D1168A55
:10207000334001E0968A33400C12012606FA04F43C
:102080001688344013B10CB1012000E0002070BD6F
:10209000F0B50346002400260025002040F66A170C
:1020A000B94200D100BF1846C1F3421401F01F0627
:1020B000012707FA06F5012C01D10C3004E0022CAF
:1020C00001D1103000E014301AB107682F430760C7
:1020D00002E00768AF430760F0BD00002DE9F0475C
:1020E00086B005460E460024A24600BFA146002742
:1020F000B08900B100BF2F462C8A4CF6FF70044017
:10210000F08804432C82AC894EF6F3100440B0886A
:1021100031890843718908430443AC81AC8A4FF686
:10212000FF400440B0890443AC8201A8FFF75AF98C
:102130001F48874202D1DDF810A001E0DDF80CA0B5
:10214000A88900F4004040B10AEBCA0000EB0A1075
:1021500031684900B0FBF1F807E00AEBCA0000EB78
:102160000A1031688900B0FBF1F86420B8FBF0F088
:1021700004012009642101FB1089A88900F40040B2
:1021800040B1322000EBC900B0FBF1F000F00700D5
:10219000044308E0322000EB09106421B0FBF1F0A9
:1021A00000F00F0004432C8106B0BDE8F08700006A
:1021B0000038014001468888C0F308007047C1F329
:1021C00008028280704708B54FF4A060FEF7FCFD5E
:1021D00026208DF8000001208DF801008DF8020006
:1021E0008DF803006846FEF7B7FD08BD00BFFEE7A7
:1021F000490050EAC12018BF04204A0D18BF40F022
:10220000010040F2FF72B2EB515F08BF40F00200E4
:10221000012808BF052070472DE9F74F144694B0F8
:102220000021C4E902111599079121F00045C9491F
:102230008D4206DC1599C4E9000117B00020BDE805
:10224000F08FC549DFF814A3A9423CDD0799C44EBD
:102250000029C44FC44A1599534619DD01F096F977
:10226000554506D0C14AC24B01F090F9C4E90001BE
:102270000AE04FF0D352BE4B01F088F932463B469C
:1022800001F084F9C4E9000117B00120BDE8F08F26
:1022900000F092FD554506D0B44AB54B00F08CFDD8
:1022A000C4E900010AE04FF0D352B14B00F084FDC5
:1022B00032463B4600F080FDC4E9000117B04FF004
:1022C000FF30BDE8F08FAB49A942159978DB21F0CA
:1022D000004183468846A84AA84B01F017F800221F
:1022E000A74B00F069FD00F07BFF099000F0A7FF0D
:1022F00006460F469C4A534601F008F843465A46A4
:1023000001F038F980468A46984A994B304639465A
:1023100000F0FCFF2A0D01250B924246534601F0C6
:1023200029F9032DC4E9000139D00B98C1F30A51F2
:10233000401A05EB45111139814230DA9148C34604
:10234000784400EB0510CDF80CA00C90D0E90023E8
:102350003046394600F0DAFF02460B4604910690FB
:102360005846039901F012F980468A4602460B4608
:102370005846039901F00AF9049B069A01F006F900
:1023800083460C9803913946D0E90223304600F089
:10239000BDFF5A46039B01F0F9F86D1CBDE7079895
:1023A0000028A2BF099817B0BDE8F08F616881F0DE
:1023B00000416160099817B04042BDE8F08FFFE727
:1023C00084461598C1F31301C0F30A50A0F2F5300A
:1023D0004FEA601800F01F06C6F12000139000209D
:1023E0000690079041F4801E05206D4676B1664A3E
:1023F00008EB00017A4452F8213002EB8101B3402E
:102400004A68139922FA01F1194305E05F4908EB84
:102410000002794451F82210A1FB0E27A1FB0C13F6
:102420001A449A4234BF0123002303EB070A05EB49
:102430008003D3E901B70F448F4234BF012100214B
:1024400093448B4411B1934502D903E0934501D2E3
:10245000012100E00021C3E901B7514445F82010F3
:10246000011EA0F10100C1DC0298059F00F100509F
:10247000800F12900298DDE90356800000F0DFFE25
:10248000834628460D9100F0F1FE6FF01D0201F029
:1024900084FCCDE90E01304600F0E8FE6FF03D020D
:1024A00001F07BFC80468A46384600F0DFFE6FF084
:1024B0005D0201F072FC074642465346119100F05E
:1024C0007BFCDDE90E2300F077FC5A460D9B00F003
:1024D00073FC00250E465A4628460D9B01F056F81F
:1024E000DDE90E2301F052F84246534601F04EF862
:1024F0003A46119B01F03EF8DFF898A0244A534673
:1025000000F004FF07468846234A244B31462846FC
:1025100000F0FCFE3A46434600F04EFC0746884673
:102520004FF0A84253463146284600F0EFFE3A46A7
:10253000434600F041FC159A12F0004F04D0129A65
:1025400081F0004152421292C4E90001129817B082
:10255000BDE8F08FFB21E93F7CD90240FB21F93F28
:102560007370032E8A19A33B000040543163621A32
:1025700061B4D03DFB21394183C8C96D305FE43F70
:102580000000E03FFC1B0000781B00005A1B00000D
:10259000182D4454FB21F93D3326A611460B113C5E
:1025A0002DE9FF4D21F0004807460C46B8F1795F50
:1025B00008DA00F015FE002801BF0020324904B0FF
:1025C000BDE8F08D3A4623461046194600F09EFEBF
:1025D000054602462D480E460B460621784400F07B
:1025E0005DF82A46334600F091FEDDE9022382467B
:1025F0008B463846214600F089FE04460F46524677
:102600005B462846314600F081FE22463B4600F0FC
:10261000BDFF07468A464FF0FF322846314601F09B
:10262000BCFB1B4A90450ADA3A46534600F0AEFF1F
:1026300004B00022BDE8F04D134B00F09BBF154ADB
:102640004245A8BFA8F500154FF00004B8BF124DD1
:1026500022462B4600F09AFF0646884622462B4625
:102660000020094900F092FF04460D463A465346C1
:102670003046414600F08AFF04B022462B46BDE8B2
:10268000F04D00F077BF00000000F03F301900006F
:102690003333D33F0000E93F0000D23F2DE9F04142
:1026A0004F1E00EBC7010446D1E9000115461E4646
:1026B00037F006020DD02A46334600F027FE7F1E73
:1026C00004EBC703D3E9002300F076FB37F00602E2
:1026D000F1D1022F25D0042F13D0062F18BFBDE84B
:1026E000F0812A46334600F011FED4E90A2300F0B7
:1026F00063FB2A46334600F009FED4E9082300F0C4
:102700005BFB2A46334600F001FED4E9062300F0C5
:1027100053FB2A46334600F0F9FDD4E9042300F0C8
:102720004BFB2A46334600F0F1FDD4E9022300F0CA
:1027300043FB2A46334600F0E9FDD4E90023BDE817
:10274000F04100F039BB00002DE9FF4D054621F0B6
:10275000004084B00C46B0F1795F0BDA2846FFF7F1
:1027600047FD042808BF00F06FF8284608B021464E
:10277000BDE8F08D2A460B46104600F0C7FD064620
:102780000F462A46234600F0C1FD804626488A4669
:1027900032463B4605217844FFF780FF8346109878
:1027A000029160B3214A224B4046514600F0AEFDF3
:1027B000CDE900015A4640465146029B00F0A6FD75
:1027C00082468846DDE906014FF0FF3201F0E5FA66
:1027D0005246434600F0DAFE32463B4600F096FD94
:1027E000DDE9062300F0D2FEDDE9002300F0CEFE95
:1027F00008B02A462346BDE8F04D00F0BBBE0B46AC
:102800005A463046394600F081FD084A084B00F030
:10281000D3FA4246534600F079FD08B02A462346D3
:10282000BDE8F04D00F0C8BA6E1800004955555586
:102830005555C5BF012201F0B0BA0022134610461B
:10284000114600F075BB0000024A0020110701F09C
:10285000A4BA000001FDFFFF014600BF7047000061
:102860002DE9F84F04460D4621F0004000917349D0
:10287000814211DC7249884201DC06D12CB120462C
:102880002946BDE8F84FFFF7D5BF6E48002DCCBFF5
:102890006D496E49BDE8F88F6D49814211DD6D4982
:1028A0008142D8BF4FF0FF366DDD20462946FFF745
:1028B0009FFC042808BFFFF7C7FF20462946BDE854
:1028C000F88F6549654F25F00045814233DD644945
:1028D000814219DD002632464FF0804320462946CA
:1028E00000F06AFA80468A4601222046294601F015
:1028F00054FA00223B4600F049FE4246534600F09F
:1029000017FB04460D463EE001260022BA463B4630
:102910002046294600F050FA80460F4600225346D2
:102920002046294600F032FE42463B4600F000FBBE
:1029300004460D4627E04B4981421BDDDFF828A104
:102940000226002253462046294600F0DFFC0022E2
:102950003B4600F031FA80460F460022534620469F
:10296000294600F013FE42463B4600F0E1FA0446D9
:102970000D4608E0032622462B4600203B4900F086
:10298000D7FA04460D4622462B461046194600F05B
:10299000BDFC8B46824602460B4600F0B7FC07465C
:1029A0000246334888460B4606217844FFF776FEF8
:1029B00052465B4600F0AAFC82462E488B463A46B9
:1029C000434605217844FFF769FE3A46434600F046
:1029D0009DFC02460B46002E504659460CDA00F08C
:1029E000EBF922462B4600F091FC01B022462B4623
:1029F000BDE8F04F00F0BEBD00F0DEF922462B46E8
:102A000000F084FC1C4A7A4402EBC603D3E900239D
:102A100000F0BCFD22462B4600F0B8FD174A7A4470
:102A200002EBC603D3E9002300F0A4FD009A002ABC
:102A3000B8BF81F00041BDE8F88F000000001044ED
:102A40000000F07F182D4454FB21F93FFB21F9BF12
:102A50000000DC3F0000203E0000F33F0000F03F9C
:102A60000000E63F008003400000F83F0000F0BF98
:102A700032150000F01400008E14000056140000FF
:102A800000B5244B21F0004287B09A42DCBF0022FF
:102A9000134629DD204B9A4208D140B94FF001007E
:102AA000FDF7F0FBFFF7C9FE07B000BD03DBFFF742
:102AB000C1FE07B000BD02AAFFF7AEFB10F0030194
:102AC00004BF0DF1080C9CE80F000DD00120012976
:102AD0000ED0022914D00DF1080C00909CE80F00D4
:102AE000FFF732FE07B000BDFFF75AFD07B000BD8B
:102AF0000DF1080C00909CE80F00FFF725FE05E0A3
:102B00000DF1080C9CE80F00FFF74AFD07B081F0BB
:102B1000004100BDFB21E93F0000F07F10B56FF0E0
:102B20000400FEF7A3FE0A4800680A49B0FBF1F072
:102B3000094908700846007800EB4001C1EBC0105D
:102B40004FF6FF7101EAC0000449088010BD000083
:102B50000000002000127A00280000202A00002037
:102B60000146114A12884A434FF0E0235A6100227D
:102B70009A611A46126942F001021A6100BF4FF0D1
:102B8000E022106900F001021AB100F48032002A3C
:102B9000F5D04FF0E022126922F001024FF0E0235D
:102BA0001A6100229A6170472A000020FFF7B6FFE1
:102BB0004FF4E13000F07EF8FFF71CF9FEF782F9E0
:102BC000FEF71EFAFDF748FCFDF756FCFEF7D0FABB
:102BD00005200B490870472141F28730FEF78CFE33
:102BE0000CE008494A680849486808490B680849E0
:102BF0000968FEF7F3F83220FFF7B2FFF1E70000B3
:102C0000440000207C010020BC010020480000207E
:102C10004C00002000B5254B21F0004287B09A42BD
:102C200003DC0022134600922BE0214B9A4208D18C
:102C300040B94FF00100FDF725FBFFF7FEFD07B09F
:102C400000BD03DBFFF7F6FD07B000BD02AAFFF7EA
:102C5000E3FA10F003014FF001000DD0012914D068
:102C600002291AD00DF1080C9CE80F00FFF798FC20
:102C700007B081F0004100BD0DF1080C00909CE808
:102C80000F00FFF761FD07B000BD0DF1080C9CE8D7
:102C90000F00FFF785FC07B000BD0DF1080C009098
:102CA0009CE80F00FFF750FDE2E70000FB21E93F41
:102CB0000000F07F10B586B00446012144F2040004
:102CC000FEF780FB4FF40070ADF8140003208DF880
:102CD000160018208DF8170005A91C48FDF72EFBDB
:102CE0004FF48060ADF8140004208DF8170005A99A
:102CF0001648FDF723FB25208DF8000003208DF8F2
:102D000001008DF8020001208DF803006846FEF7EF
:102D100023F801940020ADF80800ADF80A00ADF8E2
:102D20000C00ADF810000C20ADF80E0001A9084809
:102D3000FFF7D4F9012240F225510548FFF7A8F921
:102D400001210348FFF761F906B010BD00080140FA
:102D50000038014021F00042A2F16052B2F5801F1C
:102D600001F0004328BFD2F17F6C0BD95FEA001C51
:102D700043EAC20242EB507018BF704728BF20F0F0
:102D800001007047B2F5801FBCBF184670474FEA7C
:102D9000410C1CF5001F02D2084600F048BF70B578
:102DA00000F05EFB00000089FFF7F6BF4FF0004027
:102DB000A0F580007047000010B591EA030F48BFEE
:102DC00083F0004300F1EA83841A71EB030C05D20F
:102DD000121943EB0C03001B61EB0C01DFF824E13B
:102DE0004FEA1154A4EB135C1EEA430F18BF9EEA8E
:102DF000445F73D023EA0E03DCF1200E21EA045174
:102E000043F4801332D322FA0CFE10EB0E0023FAA7
:102E10000CFE41EB0E01CCF1200E03FA0EFE10EB7E
:102E20000E0051F10001B1F5801FCCF1200E32D21D
:102E300001EB045112FA0EF2BDE8104058BF704782
:102E4000401C38BF5FEA420218BF7047002814BF19
:102E500020F0010041F100014FEA410313F5001F8A
:102E600038BF7047A1F1C04100F048BB012A43EBD5
:102E70000302ACF1200CDCF11F0E32BF4FF0000E4C
:102E800023FA0CF310EB030041EB0451B4EB115F98
:102E9000D0D0A1EB045101F5801149085FEA300060
:102EA00001EB04510ED350F1000038BF12FA0EFEB0
:102EB00008D1BDE81040C9E7401C38BF5FEA4202B4
:102EC000CAD1C3E7BDE810404FEA410313F5001F24
:102ED00038BF7047A1F1C04100F010BB9EEA445FCB
:102EE00008D011EA5E0FBDE8104004BF01F00041B8
:102EF00000207047BDE8104070B500F0B1FA00BF87
:102F000064FBBE3E0000E0FF02494FF0000000F00D
:102F100012BF00BF0000F87F491058BFC1F1404107
:102F20005B1058BFC3F140438B42EFF30080704702
:102F30002DE9C04130B4DFF8A0C23CEA111418BF3B
:102F40003CEA131400F0EC8081EA03051CEA11143A
:102F500044EAD57418BF1CEA131500F0C780A4EB2F
:102F600005044FF0004545EAC12145EAC32341EA83
:102F7000505143EA525304F17F74994204F50034EE
:102F80004FEAC0204FEAC22208BF904200F09C8066
:102F90004FEA13650FF24016765D4FEA134506FBC4
:102FA00005F7C7F1807706FB07F74FEAD737A7FB8E
:102FB00003687642C8F58038A7FB06CE38BFA8F173
:102FC000010807FB08E64FF0000EA6FB028CE6FBAB
:102FD00003CEDCF1000CCEF1004E38BFAEF1010E95
:102FE000A6FB0C584FF000074FF00005E6FB0E87DC
:102FF000A1FB08C6A0FB07CE16EB0E0645F10005A7
:10300000E1FB076515F1E04E7EBFA4F580345FEA71
:1030100046066D4116F1800745F100054FEA172776
:103020004FEA066647EA0567A6F1DE46B6F1805F1D
:103030004FEA15251FD9384624F0010C05EBC47161
:10304000BCF1FE6F01EB0C1102D8F0BCBDE80081B1
:1030500024425CBF01F5801E9EEAC47F02D4F0BC0E
:10306000BDE80081244238D4F0BCA1F1C041BDE8E4
:10307000004100F043BA4FEAD22242EA43524FEAFB
:10308000D323A7FB02864FEAD02040EA415007FB3A
:1030900003661EEA0E0F4FEAD12105FB026658BFF8
:1030A000A6EB0056B6EB00564FEA520E4EEAC37E30
:1030B00018EB0E0E56EB530EBDD518EB02085E4111
:1030C0007F1C55F10005B6E74FF480154FF000075F
:1030D0004FF000064FF00008ADE7F0BC4FF00000E5
:1030E00001F1C04101F00041BDE8008111EA0C1F6F
:1030F0000CEA131500D00CE013EA0C1F00F0258039
:103100004FF00000F0BC81EA030101F00041BDE88E
:103110000081F0BCBDE8004181EA030100F0EEB996
:10312000F0BCBDE8004170B500F09AF9097EFC3EA4
:1031300000F007B881EA03014FF0000001F0004100
:10314000704781EA030100F0D9B9F0BCBDE8004145
:103150004FF0000021497047FFFDFBF9F7F5F4F24D
:10316000F0EEEDEBE9E8E6E4E3E1E0DEDDDBDAD822
:10317000D7D5D4D3D1D0CFCDCCCBCAC8C7C6C5C480
:10318000C2C1C0BFBEBDBCBBBAB9B8B7B6B5B4B397
:10319000B2B1B0AFAEADACABAAA9A8A8A7A6A5A482
:1031A000A3A3A2A1A09F9F9E9D9C9C9B9A99999846
:1031B0009797969595949393929191908F8F8E8EE9
:1031C0008D8C8C8B8B8A8989888887878685858476
:1031D00084838382828181800000FF070000F87F62
:1031E0004FEA41034FEA5353A3F58063D3F11E0323
:1031F000C8BFD3F1210C0CDD4FF0004242EAC122DE
:1032000042EA505232FA03FC8CEAE17CACEBE1700A
:103210007047102BC4BF0020704703F5787CBCF1C9
:10322000FF3F04D06FF0004282EA2100704770B582
:1032300000F016F94992248000207047F2E710F060
:10324000004248BF4042B0FA80F310FA03F10AD0BE
:10325000C3F11D0303F580634FEA415002EB0352B3
:1032600002EBD12170474FF000007047B0FA80F3B5
:1032700010FA03F10AD0C3F11D0303F580634FEA8E
:1032800041504FEA035202EBD12170474FF000004A
:103290007047000051EA030C17D41CF5801F58BF7B
:1032A000BCF5801F00F10680994218BF704708BF27
:1032B0009042704707D711F5801F58BF13F5801F44
:1032C00019D499427047894270471CF5801F08D570
:1032D000BCF5801FF7D58B4218BF704708BF8242EC
:1032E00070474FF4001C1CEB410F38BF1CEB430F21
:1032F00001D28B42704770B500F0B2F892244900B9
:103300004FF000514FF08053FFF706BEDFF848C181
:1033100070B51CEA111E1EBF1CEA13159EEA0C0FA5
:1033200095EA0C0F00F06F8081EA030423EA4C1346
:103330004EEAD47E21EA4C1141F4801143F480130B
:10334000AE44A1FB024CA0FB0365AEF17F7E3619B3
:1033500055EB0C05A1FB034C4CF10003A0FB021C38
:1033600016EB0C06654153F10003094218BF46F005
:10337000010613F4007F0BD14FEA03314FEA053009
:10338000340341EA155140EA16506FF003020AE097
:103390004FEAC3214FEAC520F40241EA555140EA01
:1033A00056506FF0020202EB2E4201EB025585EA05
:1033B000CE710AD05FEA440C18BF24F0004450F1EB
:1033C000000041F1000120EAD47040F2FE7C624529
:1033D00000D270BDA84214BF4FF080444FF040446B
:1033E000002E08BF0024BEF1806FA8BFA1F1C0412C
:1033F000BDE8704080F282804FF0000001F1C041D2
:1034000001F0004170479EEA0C0F0CEA131518BF3B
:1034100095EA0C0F06D04FF0000081EA030E0EF083
:10342000004170BD00F01CF88900013E00F007B8B3
:1034300000F009B84FEA430C5FEA5C5C08D081EA0F
:10344000030100F05BB84FEA410C5FEA5C5CF6D127
:103450004FF00000014970470000FF070000F87FAF
:103460000EF1020E2EF0030E5EF8046B364205D408
:10347000012A43EB030515F5001F12D8012841EB83
:10348000010C1CF5001F0CD80ED14FEAD17C15F5AC
:10349000001F0CEB4C0C0CF1020C08BF4CEBD37C66
:1034A00004E04FF0080C01E04FEAD37C0CEB4C0534
:1034B00026FA05F606F00706B6F1040C06D20EEB66
:1034C000860CBDE870404CF0010C6047DFE80CF062
:1034D000090B02024FF000414FF00000A1F500215E
:1034E00070BD19461046012851EB010418BFD4F5F0
:1034F000001484BF002001F0004170BD0808A0F551
:1035000000114FEA3101704753EA010C17D41CF542
:10351000801F58BFBCF5801F00F106808B4218BF8A
:10352000704708BF8242704707D713F5801F58BF06
:1035300011F5801F19D48B4270479B4270471CF5D0
:10354000801F08D5BCF5801FF7D5994218BF70477A
:1035500008BF904270474FF4001C1CEB430F38BF6C
:103560001CEB410F01D2994270470FB40CBC03BC55
:10357000FFF7C1BE91EA030F10B581F000413FF59E
:1035800023AC83F0004300F009B8000010B591EAC5
:10359000030F48BF83F000433FF516AC841A71EB6C
:1035A000030C07D212198CF0004C43EB0C03001BE8
:1035B00061EB0C01DFF8A4E14FEA1154A4EB135CBA
:1035C0001EEA430F18BF9EEA445F00F0B08023EA72
:1035D0006E03524221EA0451C3EB6E0338BF5B1EF7
:1035E000DCF1200E25D322FA0CFE10EB0E0043FA7C
:1035F0000CFE41EB0E01CCF1200E03FA0EFE10EB97
:103600000E0051F10001CCF1200E29D412FA0EF275
:1036100001EB0451BDE8104058BF7047401C1CBF6F
:10362000B2F1004F704700280CBF491C20F0010088
:10363000704712EB020E43EB030218BF4FF0010E6E
:103640004EEA4202ACF1200CDCF11E0E54D943FAD2
:103650000CFE10EB0E0051F1FF31CCF11E0ED5D552
:103660000EF1010E12FA0EFE404141EB010101EB99
:10367000445C5FEA5C5C10D910EBDE7001EB045136
:1036800038BFBEF1004FBDE8104018BF704700289A
:103690000CBF491C20F00100704730D24FEAD42CF7
:1036A00011F5001124F400641BD0B1FA81F20B3A39
:1036B000A41AA41ED2F12003914030FA03F3194357
:1036C000904001EBCC71002C01EB0451BDE810409F
:1036D000A8BF704701F1C0414FF0000001F0004168
:1036E0007047B0FA80F310FA03F100D110BDE41A6C
:1036F000173C4805C90AE4E701EB045110BD491025
:1037000001EB0451BDE810404FEA300002E04FF0F9
:10371000000170474A0008BF0042F8D0B2F5001F10
:1037200028BF704701F000414FF0000070479EEA4B
:10373000445F07D011EA5E0FBDE8104004BF0021CE
:1037400000207047BDE8104070B5FFF789FE00BF4C
:1037500040DFF63E83F00041104670470000E0FF76
:1037600043004FEAD30C4FEA3C0C43401FBF4007D5
:103770000CF1605113F0FE4F70471CF0006F03D145
:1037800000200CF0004170470CF0004343EA5070F9
:1037900010B540EACC0000F004FA00BF000000922F
:1037A0004FEA0001FFF7AABE4FF000414FF00000C2
:1037B000A1F500217047000090EA010F48BF81F099
:1037C000004100F14A82421A3CBF801A89184FEA30
:1037D000D0524FF07F4C1CEA410FA2EBD15318BFDF
:1037E0009CEA026F00F03B804FF0004C4CEA002056
:1037F0004CEA012121FA03FC10EB0C0C1ED202F161
:10380000FF325FEA1C2040EBC25038BF70471CF00B
:103810007F0F4FEA400C18BFBCF17F4F38BF704795
:10382000C3F12003994008BF20F00100BCF17F4F95
:1038300038BF7047A0F1C04000F0F9B94FEA3C0032
:10384000000A40EBC25028BF1CF0FF0F4FEA400CAB
:10385000E6D018BFBCF17F4F38BF7047EAE79CEA5B
:10386000026F05D010EA5C0F08BF00F000407047FF
:1038700010B500F096F900BF64FBBE3E4FF47F0C1C
:103880001CEAD0121EBF1CEAD11392EA0C0F93EA75
:103890000C0F00F0858090EA010F48BF42F480725F
:1038A00040F4000C41F400002CF07F4120F07F40F8
:1038B00000B58142A2EB03020FF2081CACEB504EA4
:1038C000C0F100009EF800E04FEA4E0E00FB0EFC37
:1038D00038BF49004FEA2C1C02F5FA020CFB0EF32C
:1038E0004FEACE1E4FEA112C4FEAC1210EEB635E68
:1038F00042EB22420EFB0CFC4FEA1C5300FB03116F
:103900004FEA112C4FEA01310EFB0CFC4FEADC4C64
:1039100000FB0C11C14228BF09184CEB03335DF8C2
:1039200004EB10EB410143EBC250B2F57C0F38BF02
:10393000704729D512F0F00F1CBF00F1C04000F015
:1039400000407047008182838485868788898B8CBC
:103950008D8E8F919293959697999A9C9D9FA0A2F8
:10396000A3A5A7A8AAACAEB0B2B3B5B7B9BCBEC048
:10397000C2C5C7C9CCCED1D4D7D9DCDFE2E6E9ECE9
:10398000F0F3F7FAFE0000004FEA400C0CF1807CE7
:10399000BCF17E4F28BF7047B0F1C04000F047B97E
:1039A00090EA010F0CEAD11348BF42F480726245DD
:1039B00038BF634507D213F47F0F16D080EA0100A9
:1039C00000F00040704710B500F0EBF8097EFC3EB7
:1039D00000F005B880EA010000F00040704780EA7E
:1039E000010000F0004000F022B912F47F0F04BF84
:1039F0000248704780EA010000F019B90000C07F5A
:103A000041000B0ED3F19E0208D950F400034FEA97
:103A1000032323FA02F048BF4042704710B500F07C
:103A2000C0F800BF49922480002070476FF0004228
:103A300082EA200070470000C10DD1F19E0206DB32
:103A40004FEA002343F0004323FA02F0704700429C
:103A500007D54FEA4001B1F1FE4F02D24FF000000E
:103A6000704710B500F09DF84992248000207047FF
:103A70006FEA200070470000B0FA80F310FA03F2FA
:103A8000C3F19D030AD0D90501EB1220530638BFBC
:103A9000704700F1010008BF20F0010070470000EE
:103AA0004FF47F0C1CEAD0121EBF1CEAD11392EA1D
:103AB0000C0F93EA0C0F00F0478090EA010F48BF0B
:103AC00042F480724FF0004C4CEA00204CEA012195
:103AD00002EB0302A0FB0113A2F50002002918BFAC
:103AE00043F001035B0028BF4FEA330342EB22425D
:103AF0005FEA132C4CEBC2502EBFBCEB436FB2F508
:103B00007C0F70474FEA036CBCF1004F08BF20F0F8
:103B10000100B2F57C0F38BF70470BD582F0FF0271
:103B200012F5803FC8BF704700F1C040D8BF00F019
:103B30000040704700F5000C5FEA4C0C48BF70472E
:103B4000B0F1C04000F073B890EA010F0CEAD11355
:103B500048BF42F48072624538BF634504D280EAB0
:103B6000010000F00040704710B500F01AF800BFE7
:103B70008900013E00F007B800F009B85FEA410C87
:103B80005FEA1C6C08D080EA010000F050B85FEAE0
:103B9000400C5FEA1C6CF6D14FF00040A0F58000AD
:103BA00070470EF1020E2EF0030E5EF8044B244215
:103BB00004D44FEA4102B2F17F4F11D84FEA4003DB
:103BC000B3F17F4F0CD80ED14FEAD07CB2F17F4FCA
:103BD0000CEB4C0C0CF1020C08BF4CEBD17C04E05C
:103BE0004FF0080C01E04FEAD17C0CEB4C0324FAB7
:103BF00003F404F00704B4F1040C06D20EEB840CB9
:103C0000BDE810404CF0010C6047DFE80CF00708FD
:103C100002024FF00040A0F5800010BD08464200AF
:103C200018BFD2F1807288BF00F0004010BDFF21A4
:103C300041EAD050C005704780F0004090EA010F83
:103C40007FF5C1AD81F0004100F007B890EA010FA7
:103C500048BF81F000413FF5B6AD421A04D882F06A
:103C60000042A0EB020011444FEAD0524FF07F4CCB
:103C70001CEA410FA2EBD15318BF9CEA026F4AD055
:103C80004FF0004C4CEA00204CEA012121FA03FCE1
:103C9000B0EB0C0C0FD412F0FE0F36D05FEA4C00E4
:103CA0001DD5001240EBC25038BF70471CF03F0FCB
:103CB00018BF70470BE0A2F101025FEA1C2040EB45
:103CC000C25038BF70471CF07F0F18BF7047C3F158
:103CD0002003994014BF401E20F001007047800867
:103CE0004FEA122308BF7047B0FA80FCA2EB0C0227
:103CF000CCF1280C60FA0CF093EA122F04BF00EB11
:103D0000C25070474FEAC3707047130A5FEADC1075
:103D100008BF7047F6E79CEA026F04D010EA5C0F18
:103D200008BF0020704710B5FFF73BFF40DFF63EAD
:103D300081F0004070470CF00F03092B08BF0820EA
:103D400000F059800A2B0BD0082B18BF704708BF12
:103D50001CF0400F0AD04FF000004FF000017047F8
:103D60001CF0400F18BF4FF0004070471CF0100FC0
:103D700008D020F0704300F07F4242EAD3014FEABE
:103D80004370704700F0604021F07F4242EA000239
:103D900001F07F4040EA727070474FF0FF0C4CF426
:103DA000E06C1CEA11531CBF9CEA030C9445C2BF93
:103DB000DA4201EB02517047002B0DD0BCF1000F2D
:103DC0000FD0002A01F00041A4BF41F0E04141F0D2
:103DD0007F614FF00000704701F000414FF000009C
:103DE000704750EA01334FF09B0C18BF4CF0806CC9
:103DF0007FF48AA870471CF4801F11D01CF4E02FB8
:103E000003D06FEACC31490070474FF04050EFF3D8
:103E1000008222F0704242EA000282F3008870477A
:103E20004FF000007047000000000000CDCCCCBD7A
:103E3000CDCC4CBD000000000000000000000000E0
:103E40000000000000000000000000000000000072
:103E50000000000000000000000000000000000062
:103E6000CDCC4C3DCDCC4C3DCDCC4C3D295C8F3D9B
:103E700000000000000000004FBB610567ACDD3FA3
:103E8000182D4454FB21E93F9BF681D20B73EF3F81
:103E9000182D4454FB21F93FE2652F227F2B7A3CF9
:103EA000075C143326A6813CBDCBF07A8807703CB2
:103EB000075C143326A6913CC4EB98999999C9BF25
:103EC000711623FEC671BCBF6D9A74AFF2B0B3BF5A
:103ED0009AFDDE522DDEADBF2F6C6A2C44B4A2BF1A
:103EE0000D5555555555D53FFF8300922449C23F86
:103EF0006E204CC5CD45B73F513DD0A0660DB13FBA
:103F0000EB0D76244B7BA93F11DA22E33AAD903FCB
:103F10004C5555555555A53F7751C1166CC156BFE7
:103F20009015CB19A001FA3EAD529C804F7E92BEF7
:103F3000C4B1B4BD9EEE213ED43888BEE9FAA8BD16
:103F400000004054FB21F93F3163621A61B4D03D57
:103F50000000601A61B4D03D7370032E8A19A33B30
:103F60000000002E8A19A33BC14920259A837B3982
:103F700000000000000000006E83F9A22915444EE5
:103F8000D15727FCC0DD34F5999562DB4190433C65
:103F9000AB6351FE61C5BBDE3A6E24B7E0D24D4241
:103FA000EA2E49061C92D1091CEB1DFE3EA729B141
:103FB000F53582E88444BB2E26709CE9417E5FB4CF
:103FC00039D69139F43953838B5F849C3B28F9BDF2
:103FD000FF97F81F0F9805DE8B112FEF1F6D0A5A00
:103FE000CF7E366DB709CB27663F464F2DEA5F9EE1
:103FF000C7BA27757BF1E5EBF739073DEA92528A9C
:10400000B15FFB6B085D8D1FA6F810111111813F88
:10401000D561C119A0012ABF7DFEB157E31DC73E7E
:10402000EB9C2B8AE6E55ABE7CD5CF5A3AD9E53DC2
:1040300050400008000000206C0000006C010008E7
:10404000BC4000086C000020440800008801000803
:1040500000A24A0400000000000000000102030466
:10406000060708090000000001020304010203041E
:10407000060708090204060800000000000000000E
:104080000000000000000000000000000000000030
:104090000000000000000000000000000000000020
:1040A00000000C4200002042000000000000000060
:0C40B00000000000000000000000000004
:0400000508000131BD
:00000001FF
